{
  "address": "0x4452EA9F5C813b76cac09D6e41E812d70354e778",
  "abi": [
    {
      "inputs": [
        {
          "internalType": "address",
          "name": "_eas",
          "type": "address"
        },
        {
          "internalType": "bytes32",
          "name": "_votingSchemaUID",
          "type": "bytes32"
        }
      ],
      "stateMutability": "nonpayable",
      "type": "constructor"
    },
    {
      "anonymous": false,
      "inputs": [
        {
          "indexed": true,
          "internalType": "address",
          "name": "previousOwner",
          "type": "address"
        },
        {
          "indexed": true,
          "internalType": "address",
          "name": "newOwner",
          "type": "address"
        }
      ],
      "name": "OwnershipTransferred",
      "type": "event"
    },
    {
      "inputs": [],
      "name": "CREDIT_PRICE",
      "outputs": [
        {
          "internalType": "uint256",
          "name": "",
          "type": "uint256"
        }
      ],
      "stateMutability": "view",
      "type": "function"
    },
    {
      "inputs": [],
      "name": "INITIAL_CREDIT_BALANCE",
      "outputs": [
        {
          "internalType": "uint256",
          "name": "",
          "type": "uint256"
        }
      ],
      "stateMutability": "view",
      "type": "function"
    },
    {
      "inputs": [],
      "name": "MAX_CREDIT_BALANCE",
      "outputs": [
        {
          "internalType": "uint256",
          "name": "",
          "type": "uint256"
        }
      ],
      "stateMutability": "view",
      "type": "function"
    },
    {
      "inputs": [],
      "name": "VOTING_SCHEMA_UID",
      "outputs": [
        {
          "internalType": "bytes32",
          "name": "",
          "type": "bytes32"
        }
      ],
      "stateMutability": "view",
      "type": "function"
    },
    {
      "inputs": [
        {
          "internalType": "string",
          "name": "name",
          "type": "string"
        }
      ],
      "name": "addCandidate",
      "outputs": [],
      "stateMutability": "nonpayable",
      "type": "function"
    },
    {
      "inputs": [
        {
          "internalType": "address",
          "name": "voter",
          "type": "address"
        },
        {
          "internalType": "uint256",
          "name": "candidateId",
          "type": "uint256"
        },
        {
          "internalType": "uint256",
          "name": "credits",
          "type": "uint256"
        },
        {
          "internalType": "uint256",
          "name": "votes",
          "type": "uint256"
        }
      ],
      "name": "attestVote",
      "outputs": [
        {
          "internalType": "bytes32",
          "name": "attestationUID",
          "type": "bytes32"
        }
      ],
      "stateMutability": "nonpayable",
      "type": "function"
    },
    {
      "inputs": [
        {
          "internalType": "uint256",
          "name": "",
          "type": "uint256"
        }
      ],
      "name": "candidateIds",
      "outputs": [
        {
          "internalType": "uint256",
          "name": "",
          "type": "uint256"
        }
      ],
      "stateMutability": "view",
      "type": "function"
    },
    {
      "inputs": [
        {
          "internalType": "uint256",
          "name": "",
          "type": "uint256"
        }
      ],
      "name": "candidates",
      "outputs": [
        {
          "internalType": "string",
          "name": "name",
          "type": "string"
        },
        {
          "internalType": "uint256",
          "name": "votes",
          "type": "uint256"
        }
      ],
      "stateMutability": "view",
      "type": "function"
    },
    {
      "inputs": [
        {
          "internalType": "uint256",
          "name": "candidateId",
          "type": "uint256"
        },
        {
          "internalType": "uint256",
          "name": "credits",
          "type": "uint256"
        }
      ],
      "name": "castVote",
      "outputs": [],
      "stateMutability": "nonpayable",
      "type": "function"
    },
    {
      "inputs": [
        {
          "internalType": "address",
          "name": "",
          "type": "address"
        }
      ],
      "name": "creditBalances",
      "outputs": [
        {
          "internalType": "uint256",
          "name": "",
          "type": "uint256"
        }
      ],
      "stateMutability": "view",
      "type": "function"
    },
    {
      "inputs": [],
      "name": "eas",
      "outputs": [
        {
          "internalType": "contract IEAS",
          "name": "",
          "type": "address"
        }
      ],
      "stateMutability": "view",
      "type": "function"
    },
    {
      "inputs": [],
      "name": "getAllCandidates",
      "outputs": [
        {
          "components": [
            {
              "internalType": "string",
              "name": "name",
              "type": "string"
            },
            {
              "internalType": "uint256",
              "name": "votes",
              "type": "uint256"
            }
          ],
          "internalType": "struct QuadraticVoting.Candidate[]",
          "name": "",
          "type": "tuple[]"
        }
      ],
      "stateMutability": "view",
      "type": "function"
    },
    {
      "inputs": [
        {
          "internalType": "address",
          "name": "voter",
          "type": "address"
        }
      ],
      "name": "getCreditBalance",
      "outputs": [
        {
          "internalType": "uint256",
          "name": "",
          "type": "uint256"
        }
      ],
      "stateMutability": "view",
      "type": "function"
    },
    {
      "inputs": [
        {
          "internalType": "uint256",
          "name": "candidateId",
          "type": "uint256"
        }
      ],
      "name": "getVoteCount",
      "outputs": [
        {
          "internalType": "uint256",
          "name": "",
          "type": "uint256"
        }
      ],
      "stateMutability": "view",
      "type": "function"
    },
    {
      "inputs": [
        {
          "internalType": "address",
          "name": "",
          "type": "address"
        }
      ],
      "name": "isRegistered",
      "outputs": [
        {
          "internalType": "bool",
          "name": "",
          "type": "bool"
        }
      ],
      "stateMutability": "view",
      "type": "function"
    },
    {
      "inputs": [],
      "name": "nextCandidateId",
      "outputs": [
        {
          "internalType": "uint256",
          "name": "",
          "type": "uint256"
        }
      ],
      "stateMutability": "view",
      "type": "function"
    },
    {
      "inputs": [],
      "name": "owner",
      "outputs": [
        {
          "internalType": "address",
          "name": "",
          "type": "address"
        }
      ],
      "stateMutability": "view",
      "type": "function"
    },
    {
      "inputs": [
        {
          "internalType": "uint256",
          "name": "amount",
          "type": "uint256"
        }
      ],
      "name": "purchaseCredits",
      "outputs": [],
      "stateMutability": "payable",
      "type": "function"
    },
    {
      "inputs": [],
      "name": "registerVoter",
      "outputs": [],
      "stateMutability": "nonpayable",
      "type": "function"
    },
    {
      "inputs": [],
      "name": "renounceOwnership",
      "outputs": [],
      "stateMutability": "nonpayable",
      "type": "function"
    },
    {
      "inputs": [
        {
          "internalType": "address",
          "name": "newOwner",
          "type": "address"
        }
      ],
      "name": "transferOwnership",
      "outputs": [],
      "stateMutability": "nonpayable",
      "type": "function"
    },
    {
      "stateMutability": "payable",
      "type": "receive"
    }
  ],
  "transactionHash": "0x4f312d5639fa8fba4dc15908696b4dbe15c5ae8386e6c5b0bdf39a0a535ba452",
  "args": [
    "0xC2679fBD37d54388Ce493F1DB75320D236e1815e",
    "0x4dd00e683543520f2efe3ec546ae6f8e306e37460d4142000f23d7e8b75d68ee"
  ],
  "numDeployments": 1,
  "solcInputHash": "d244739472e0c1655f93f6d30a7588e8",
  "bytecode": "0x60c0604052600160055534801561001557600080fd5b5060405161138e38038061138e833981016040819052610034916100a3565b61003d33610053565b6001600160a01b0390911660805260a0526100dd565b600080546001600160a01b038381166001600160a01b0319831681178455604051919092169283917f8be0079c531659141344cd1fd0a4f28419497f9722a3daafe3b4186f6b6457e09190a35050565b600080604083850312156100b657600080fd5b82516001600160a01b03811681146100cd57600080fd5b6020939093015192949293505050565b60805160a05161127e6101106000396000818161019f01526104a70152600081816102dd015261046d015261127e6000f3fe60806040526004361061012e5760003560e01c80638150864d116100ab578063c285a85a1161006f578063c285a85a14610392578063c3c5a547146103a7578063c487340f146103e7578063d16ff4c8146103fd578063ecb617d914610413578063f2fde38b1461042857600080fd5b80638150864d146102cb5780638da5cb5b146103175780639fc0181614610335578063b2c2f2e81461034f578063bef101fb1461037f57600080fd5b80633477ee2e116100f25780633477ee2e14610205578063462e91ec146102335780636009a2d8146102535780636add1b3f14610280578063715018a6146102b657600080fd5b8063030161301461013a578063044ca1461461016d578063268231bb1461018d5780632c0a3f89146101c15780632e6997fe146101e357600080fd5b3661013557005b600080fd5b34801561014657600080fd5b5061015a610155366004610da8565b610448565b6040519081526020015b60405180910390f35b34801561017957600080fd5b5061015a610188366004610ddd565b610469565b34801561019957600080fd5b5061015a7f000000000000000000000000000000000000000000000000000000000000000081565b3480156101cd57600080fd5b506101e16101dc366004610e16565b6105c5565b005b3480156101ef57600080fd5b506101f861073d565b6040516101649190610e7e565b34801561021157600080fd5b50610225610220366004610da8565b6108c1565b604051610164929190610ef4565b34801561023f57600080fd5b506101e161024e366004610f16565b610965565b34801561025f57600080fd5b5061015a61026e366004610f88565b60016020526000908152604090205481565b34801561028c57600080fd5b5061015a61029b366004610f88565b6001600160a01b031660009081526001602052604090205490565b3480156102c257600080fd5b506101e1610a23565b3480156102d757600080fd5b506102ff7f000000000000000000000000000000000000000000000000000000000000000081565b6040516001600160a01b039091168152602001610164565b34801561032357600080fd5b506000546001600160a01b03166102ff565b34801561034157600080fd5b5061015a6509184e72a00081565b34801561035b57600080fd5b5061015a61036a366004610da8565b60009081526002602052604090206001015490565b6101e161038d366004610da8565b610a37565b34801561039e57600080fd5b5061015a606481565b3480156103b357600080fd5b506103d76103c2366004610f88565b60036020526000908152604090205460ff1681565b6040519015158152602001610164565b3480156103f357600080fd5b5061015a6101f481565b34801561040957600080fd5b5061015a60055481565b34801561041f57600080fd5b506101e1610ba7565b34801561043457600080fd5b506101e1610443366004610f88565b610c32565b6004818154811061045857600080fd5b600091825260209091200154905081565b60007f00000000000000000000000000000000000000000000000000000000000000006001600160a01b031663f17325e760405180604001604052807f000000000000000000000000000000000000000000000000000000000000000081526020016040518060c0016040528060006001600160a01b03168152602001600067ffffffffffffffff1681526020016000151581526020016000801b81526020018a8a8a8a60405160200161054194939291906001600160a01b0394909416845260208401929092526040830152606082015260800190565b604051602081830303815290604052815260200160008152508152506040518263ffffffff1660e01b81526004016105799190610faa565b6020604051808303816000875af1158015610598573d6000803e3d6000fd5b505050506040513d601f19601f820116820180604052508101906105bc919061102d565b95945050505050565b3360009081526003602052604090205460ff166106205760405162461bcd60e51b8152602060048201526014602482015273159bdd195c881b9bdd081c9959da5cdd195c995960621b60448201526064015b60405180910390fd5b336000908152600160205260409020548111156106765760405162461bcd60e51b8152602060048201526014602482015273496e73756666696369656e74206372656469747360601b6044820152606401610617565b6000828152600260205260408120805461068f90611046565b9050116106de5760405162461bcd60e51b815260206004820152601860248201527f43616e64696461746520646f6573206e6f7420657869737400000000000000006044820152606401610617565b60006106e982610cab565b3360009081526001602052604081208054929350849290919061070d908490611090565b9091555050600083815260026020526040812060010180548392906107339084906110a9565b9091555050505050565b60045460609060009067ffffffffffffffff81111561075e5761075e6110bc565b6040519080825280602002602001820160405280156107a457816020015b60408051808201909152606081526000602082015281526020019060019003908161077c5790505b50905060005b6004548110156108bb5760026000600483815481106107cb576107cb6110d2565b906000526020600020015481526020019081526020016000206040518060400160405290816000820180546107ff90611046565b80601f016020809104026020016040519081016040528092919081815260200182805461082b90611046565b80156108785780601f1061084d57610100808354040283529160200191610878565b820191906000526020600020905b81548152906001019060200180831161085b57829003601f168201915b5050505050815260200160018201548152505082828151811061089d5761089d6110d2565b602002602001018190525080806108b3906110e8565b9150506107aa565b50919050565b6002602052600090815260409020805481906108dc90611046565b80601f016020809104026020016040519081016040528092919081815260200182805461090890611046565b80156109555780601f1061092a57610100808354040283529160200191610955565b820191906000526020600020905b81548152906001019060200180831161093857829003601f168201915b5050505050908060010154905082565b61096d610cfe565b600580546000918261097e836110e8565b909155506040805160606020601f870181900402820181018352918101858152929350918291869086908190850183828082843760009201829052509385525050506020918201819052838152600290915260409020815181906109e2908261114f565b50602091909101516001918201556004805491820181556000527f8a35acfbc15ff81a39ae7d344fd709f28e8600b4aa8c65c6b64bfe7fe36bd19b01555050565b610a2b610cfe565b610a356000610d58565b565b3360009081526001602052604090205415610aa45760405162461bcd60e51b815260206004820152602760248201527f4d7573742068617665207a65726f206372656469747320746f207075726368616044820152667365206d6f726560c81b6064820152608401610617565b6000610ab66509184e72a0008361120f565b905080341015610aff5760405162461bcd60e51b8152602060048201526014602482015273125b9cdd59999a58da595b9d081c185e5b595b9d60621b6044820152606401610617565b6101f4821115610b515760405162461bcd60e51b815260206004820152601760248201527f45786365656473206d6178696d756d20637265646974730000000000000000006044820152606401610617565b33600090815260016020526040902082905534811015610ba357336108fc610b798334611090565b6040518115909202916000818181858888f19350505050158015610ba1573d6000803e3d6000fd5b505b5050565b3360009081526003602052604090205460ff1615610c075760405162461bcd60e51b815260206004820152601860248201527f566f74657220616c7265616479207265676973746572656400000000000000006044820152606401610617565b336000908152600160208181526040808420606490556003909152909120805460ff19169091179055565b610c3a610cfe565b6001600160a01b038116610c9f5760405162461bcd60e51b815260206004820152602660248201527f4f776e61626c653a206e6577206f776e657220697320746865207a65726f206160448201526564647265737360d01b6064820152608401610617565b610ca881610d58565b50565b6000806002610cbb8460016110a9565b610cc59190611226565b90508291505b818110156108bb57905080600281610ce38186611226565b610ced91906110a9565b610cf79190611226565b9050610ccb565b6000546001600160a01b03163314610a355760405162461bcd60e51b815260206004820181905260248201527f4f776e61626c653a2063616c6c6572206973206e6f7420746865206f776e65726044820152606401610617565b600080546001600160a01b038381166001600160a01b0319831681178455604051919092169283917f8be0079c531659141344cd1fd0a4f28419497f9722a3daafe3b4186f6b6457e09190a35050565b600060208284031215610dba57600080fd5b5035919050565b80356001600160a01b0381168114610dd857600080fd5b919050565b60008060008060808587031215610df357600080fd5b610dfc85610dc1565b966020860135965060408601359560600135945092505050565b60008060408385031215610e2957600080fd5b50508035926020909101359150565b6000815180845260005b81811015610e5e57602081850181015186830182015201610e42565b506000602082860101526020601f19601f83011685010191505092915050565b60006020808301818452808551808352604092508286019150828160051b87010184880160005b83811015610ee657888303603f1901855281518051878552610ec988860182610e38565b918901519489019490945294870194925090860190600101610ea5565b509098975050505050505050565b604081526000610f076040830185610e38565b90508260208301529392505050565b60008060208385031215610f2957600080fd5b823567ffffffffffffffff80821115610f4157600080fd5b818501915085601f830112610f5557600080fd5b813581811115610f6457600080fd5b866020828501011115610f7657600080fd5b60209290920196919550909350505050565b600060208284031215610f9a57600080fd5b610fa382610dc1565b9392505050565b60208152815160208201526000602083015160408084015260018060a01b03815116606084015267ffffffffffffffff60208201511660808401526040810151151560a0840152606081015160c0840152608081015160c060e0850152611015610120850182610e38565b905060a0820151610100850152809250505092915050565b60006020828403121561103f57600080fd5b5051919050565b600181811c9082168061105a57607f821691505b6020821081036108bb57634e487b7160e01b600052602260045260246000fd5b634e487b7160e01b600052601160045260246000fd5b818103818111156110a3576110a361107a565b92915050565b808201808211156110a3576110a361107a565b634e487b7160e01b600052604160045260246000fd5b634e487b7160e01b600052603260045260246000fd5b6000600182016110fa576110fa61107a565b5060010190565b601f821115610ba157600081815260208120601f850160051c810160208610156111285750805b601f850160051c820191505b8181101561114757828155600101611134565b505050505050565b815167ffffffffffffffff811115611169576111696110bc565b61117d816111778454611046565b84611101565b602080601f8311600181146111b2576000841561119a5750858301515b600019600386901b1c1916600185901b178555611147565b600085815260208120601f198616915b828110156111e1578886015182559484019460019091019084016111c2565b50858210156111ff5787850151600019600388901b60f8161c191681555b5050505050600190811b01905550565b80820281158282048414176110a3576110a361107a565b60008261124357634e487b7160e01b600052601260045260246000fd5b50049056fea26469706673582212203f2385c68ef2c3c864119337c29d0d9fbcbcef4375fe9471f9da81575f3574d964736f6c63430008110033",
  "devdoc": {
    "kind": "dev",
    "methods": {
      "owner()": {
        "details": "Returns the address of the current owner."
      },
      "renounceOwnership()": {
        "details": "Leaves the contract without owner. It will not be possible to call `onlyOwner` functions anymore. Can only be called by the current owner. NOTE: Renouncing ownership will leave the contract without an owner, thereby removing any functionality that is only available to the owner."
      },
      "transferOwnership(address)": {
        "details": "Transfers ownership of the contract to a new account (`newOwner`). Can only be called by the current owner."
      }
    },
    "version": 1
  },
  "userdoc": {
    "kind": "user",
    "methods": {},
    "version": 1
  },
  "storageLayout": {
    "storage": [
      {
        "astId": 490,
        "contract": "contracts/QuadraticVoting.sol:QuadraticVoting",
        "label": "_owner",
        "offset": 0,
        "slot": "0",
        "type": "t_address"
      },
      {
        "astId": 652,
        "contract": "contracts/QuadraticVoting.sol:QuadraticVoting",
        "label": "creditBalances",
        "offset": 0,
        "slot": "1",
        "type": "t_mapping(t_address,t_uint256)"
      },
      {
        "astId": 657,
        "contract": "contracts/QuadraticVoting.sol:QuadraticVoting",
        "label": "candidates",
        "offset": 0,
        "slot": "2",
        "type": "t_mapping(t_uint256,t_struct(Candidate)648_storage)"
      },
      {
        "astId": 661,
        "contract": "contracts/QuadraticVoting.sol:QuadraticVoting",
        "label": "isRegistered",
        "offset": 0,
        "slot": "3",
        "type": "t_mapping(t_address,t_bool)"
      },
      {
        "astId": 664,
        "contract": "contracts/QuadraticVoting.sol:QuadraticVoting",
        "label": "candidateIds",
        "offset": 0,
        "slot": "4",
        "type": "t_array(t_uint256)dyn_storage"
      },
      {
        "astId": 667,
        "contract": "contracts/QuadraticVoting.sol:QuadraticVoting",
        "label": "nextCandidateId",
        "offset": 0,
        "slot": "5",
        "type": "t_uint256"
      }
    ],
    "types": {
      "t_address": {
        "encoding": "inplace",
        "label": "address",
        "numberOfBytes": "20"
      },
      "t_array(t_uint256)dyn_storage": {
        "base": "t_uint256",
        "encoding": "dynamic_array",
        "label": "uint256[]",
        "numberOfBytes": "32"
      },
      "t_bool": {
        "encoding": "inplace",
        "label": "bool",
        "numberOfBytes": "1"
      },
      "t_mapping(t_address,t_bool)": {
        "encoding": "mapping",
        "key": "t_address",
        "label": "mapping(address => bool)",
        "numberOfBytes": "32",
        "value": "t_bool"
      },
      "t_mapping(t_address,t_uint256)": {
        "encoding": "mapping",
        "key": "t_address",
        "label": "mapping(address => uint256)",
        "numberOfBytes": "32",
        "value": "t_uint256"
      },
      "t_mapping(t_uint256,t_struct(Candidate)648_storage)": {
        "encoding": "mapping",
        "key": "t_uint256",
        "label": "mapping(uint256 => struct QuadraticVoting.Candidate)",
        "numberOfBytes": "32",
        "value": "t_struct(Candidate)648_storage"
      },
      "t_string_storage": {
        "encoding": "bytes",
        "label": "string",
        "numberOfBytes": "32"
      },
      "t_struct(Candidate)648_storage": {
        "encoding": "inplace",
        "label": "struct QuadraticVoting.Candidate",
        "members": [
          {
            "astId": 645,
            "contract": "contracts/QuadraticVoting.sol:QuadraticVoting",
            "label": "name",
            "offset": 0,
            "slot": "0",
            "type": "t_string_storage"
          },
          {
            "astId": 647,
            "contract": "contracts/QuadraticVoting.sol:QuadraticVoting",
            "label": "votes",
            "offset": 0,
            "slot": "1",
            "type": "t_uint256"
          }
        ],
        "numberOfBytes": "64"
      },
      "t_uint256": {
        "encoding": "inplace",
        "label": "uint256",
        "numberOfBytes": "32"
      }
    }
  }
}